S03D0000553A5C506572736F6E616C5C4543453336325C6D696E6970726F6A6563745C4D696E6950726A5F5331375C62696E5C50726F6A6563742E61627374
S123C000FEC033FDC031270E35ED31EC3169700434FB310326F2FEC035EC31270BED3118C8
S123C0200A30700434F920F13DCF090007D206C0860001C037C1100900000A4D397F4C3A6F
S123C04040C6025B347900354F3708FC4C3980CC9C405B3C7900C85AC97900CAC60C5BCB2A
S123C060C6105B035B01790272C6C05B8DC61B7B0242C6805B82790083C6E55B84C6315B36
S123C0803BC6805B383D1B9C141007AF10EF203EC7876C826C80FE09040425127C0904FE68
S123C0A009080425057C09082024527C0908FC09080434DCC6105B85D686C18026FAD69093
S123C0C0CE00001D02400158088E000A2DF520C04C37804E8F800CFC0900042406C6018747
S123C0E07C09044E8F400CFC0902042406C601877C09064E8F8002C78FC601877C09004EA6
S11CC1008F4002C78FC6017C09020B4C4E800B0B00030901010001000063
S105FFD6C10F55
S105FFE0C10B4F
S105FFF0C0D07B
S105FFFEC02914
S9030000FC
